:100EAB00E4900031F0C2A0D2A1C2A2900030F09029
:100EBB000030E004F0E0B40AF6C2A17F0212114B3D
:100ECB00D2A1D2A37F0212114BC2A17F0212114BEE
:100EDB00D2A1D2A37F0212114BC2A17F0212114BDE
:100EEB00D2A3D2A17F0212114BC2A17F0212114BCE
:100EFB00D2A3D2A2D2A17F0212114BE4900030F008
:100F0B00C2A17F0212114B900031E025E0FFA2A29B
:100F1B00E4334FF0D2A17F0212114B900030E0046A
:0E0F2B00F0E0C3940840D9D2A0900031E0FF5E
:010F39002295
:03115800DFFE2295
:1010BA00D3EF9400EE940040147D6E7C00ED1D7019
:0D10CA00011CED4C70F7EF1F70E61E80E377
:0110D70022F6
:07114B00AE071FEE70FA224F
:1010F300D2917F02121158C2917F147E001210BA4E
:07110300D2917F0D0211588B
:05103E00E4F0A3EFF057
:10104300E490003DF03091FD7F0812115890003E6E
:10105300E025E0F0309103E004F02091FD90003DA5
:0E106300E004F0E0C3940840DC90003EE0FFA3
:01107100225C
:100D32001210F3D291309103020DF63091FD7F280B
:100D420012115812104390003012103E90003212CD
:100D5200103E90003412103E90003612103E900069
:100D62003CEFF07F19121158900032E0FEA3E0FF31
:100D7200900031E02FFF900030E03EFE900035E021
:100D82002FFF900034E03EFE900036E0FCA3E0FD31
:100D92002FFFEC3EFE90003CE07A00B50722EAB558
:100DA200061E900030A3E0900038F0900032A3E0DD
:100DB200900039F0900034A3E090003AF0A3EDF0F7
:100DC200900038E0FF900028E4F0A3EFF0900039A3
:100DD200E0FF90002AE4F0A3EFF090003AE0FF90E9
:100DE200002CE4F0A3EFF090003BE0FF90002EE433
:040DF200F0A3EFF08B
:010DF60022DA
:10111E00758DF3858D8B438920759850D2ACD28E08
:03112E00D2992231
:0D113100C2A5121099D2A712109DC2A722CC
:0D113E00D2A5121099D2A712109DC2A722AF
:1010D800ED7007900033EFF08007EF244090003365
:0B10E800F0900033E04480FF02113163
:10100800900030EBF0A3EAF0A3E9F01210D89000BA
:1010180030E0FBA3E0FAA3E0F9120DF760179000A7
:1010280030A3E475F001120E10A9F0FA120DF7FFC3
:0610380012113E80D922D6
:10110A007F381211317F0C1211317F061211317F93
:04111A00010211318C
:08109900C2A68F807F017E00DA
:1010A100D3EF9400EE9400400F7D267C82DCFEDDC0
:0810B100FAEF1F70EB1E80E84E
:0110B9002214
:100FC600483A00543A00566F6C3A002564002E00E9
:100FD6002500430048756D693A25642E2564202551
:100FE6000A0054656D703A25642E256420A1E60A30
:100FF60000566F6C746167653A25642E2564205629
:021006000A00DE
:05115200420024000032
:100B650012111ED2AF12110A7BFF7A0F79C6E4FD6E
:100B7500FF1210087BFF7A0F79C9E4FD7F08121078
:100B8500087BFF7A0F79CC7D01E4FF1210087F9670
:100B95007E001210BA120D327F647E001210BA1256
:100BA5000EAB7E00900024EEF0A3EFF0C3940AEEA6
:100BB50094005009900024E4F0A3740DF0900033E4
:100BC50074FFF0A3740FF0A374D1F0900028E0FF38
:100BD500A3E0900036CFF0A3EFF07B017A00790017
:100BE50012086590003374FFF0A3740FF0A374D15D
:100BF500F090002AE0FFA3E0900036CFF0A3EFF0DD
:100C05007B017A00790612086590003374FFF0A322
:100C1500740FF0A374D1F090002CE0FFA3E09000D6
:100C250036CFF0A3EFF07B017A00791212086590B8
:100C3500003374FFF0A3740FF0A374D1F090002E6D
:100C4500E0FFA3E0900036CFF0A3EFF07B017A0040
:100C5500791E1208657B017A007900E4FD7F021296
:100C650010087BFF7A0F79D4E4FD7F041210087B0E
:100C7500017A007906E4FD7F051210087BFF7A0FE3
:100C850079D6E4FD7F061210087B017A007912E41B
:100C9500FD7F0A1210087BFF7A0F79D4E4FD7F0CE3
:100CA5001210087B017A00791EE4FD7F0D121008F1
:100CB5007BFF7A0F79D8E4FD7F0F1210087BFF7A4E
:100CC5000F79DA900028E0FFA3E0900033CFF0A37E
:100CD500EFF090002AE0FFA3E0900035CFF0A3EFFE
:100CE500F012086B7BFF7A0F79E890002CE0FFA3E8
:100CF500E0900033CFF0A3EFF090002EE0FFA3E0EB
:100D0500900035CFF0A3EFF012086B7BFF7A0F79D7
:100D1500F7900024E0FFA3E0900033CFF0A3EFF0BD
:0D0D250012086B7FE87E031210BA020B93D8
:03000000020F3AB2
:0C0F3A00787FE4F6D8FD758121020F815C
:100DF700BB010689828A83E0225002E722BBFE02FA
:090E0700E32289828A83E493222C
:100E1000A3F8E0C5F025F0F0E58215827002158395
:060E2000E0C838F0E822F2
:10080000E5082433F582E43400F583E005082290FE
:100810000030300703900033E475F001120E6502DA
:100820000DF72000E97F2ED2008018EF540F24909E
:10083000D43440D4FF30040BEF24BFB41A0050036B
:100840002461FFE50960021509050CE50C7002053D
:100850000B30070E900030E475F001120E65EF02C8
:100860000E530210727403D2078003E4C207F50826
:10087000900030120E7CE4F509F50BF50CE50960EB
:10088000077F2012084380F5750AFFC201C200C22B
:1008900002C203C205C206C20812080FFF700D3063
:1008A00007057F00120854AF0CAE0B22B4255FC2BF
:1008B000D5C20412080FFF24D0B40A00501A75F0F4
:1008C0000A780930D50508B6FF0106C6A426F62029
:1008D000D5047002D20380D924CFB41A00EF50049B
:1008E000C2E5D204020A55D20180C6D20080C0D22D
:1008F0000280BCD2D580BAD20580B47F20120843D2
:100900002002077401B5090040F1120800FF120827
:100910004302087DD208D2068095120800FB120817
:1009200000FA120800F94A4B700679267A0B7BFF11
:1009300020022EE509602A7E008E82758300120E49
:100940002660060EEE650A70F0C2D5EBC0E0EAC084
:10095000E0E9C0E0EE120A9CD0E0F9D0E0FAD0E085
:10096000FB120DF7FF60AAEBC0E0EAC0E0E9C0E0CF
:10097000120843D0E02401F9D0E03400FAD0E0FBC3
:10098000E50A0460DCD50AD980877BFF7A0A79986A
:10099000D202809C791080027908C206C2088008C1
:1009A000D2D5790A8004790AC2D5E50A047002F525
:1009B0000AE4FAFDFEFF120800FC7B082001131276
:1009C0000800FD7B1030000A120800FE120800FF2C
:1009D0007B20EC3382D592D55013C3E43000069FC0
:1009E000FFE49EFEE42001039DFDE49CFCE4CBF8C3
:1009F000C201EC700CCFCECDCCE824F8F870F380B7
:100A000017C3EF33FFEE33FEED33FDEC33FCEB3376
:100A1000FB994002FB0FD8E9EB300105F8D0E0C4A8
:100A200048B201C0E00AEC4D4E4F78207B0070C206
:100A3000EAB50A0040BCC0E0120A9ED0F0D0E02027
:100A40000104C4C0E0C4B201C0F012082CD0F0D53B
:100A5000F0EB02087D120E85091A5309945808EB31
:100A60004C08E74209984F09A04409A049090043EE
:080A700009A655098A46098A0E
:100A780045098A470B465008EF2D08F32E09162B17
:100A880008F7230914200B2F2A08AF480000090E85
:100A98003F3F3F00790AA2D5200314300509B91059
:100AA800020404B9080104A2D5200602500104205A
:100AB80002689202B509005034C0E07F2030031963
:100AC8007F30A20272067205500F120AF5C202C2E6
:100AD80006C205C2087F30800F300503E9C0E01266
:100AE8000843300503D0E0F9D0E0B509CC3005174C
:100AF8007F30B9100C1208437F583004077F788084
:100B080003B908031208433002057F2D0208437F0A
:100B1800202008F87F2B2006F322920280CF286E2F
:100B2800756C6C2900D2011208003001F8C20178F6
:100B38000930D50108F60208AF2D5043495812086C
:100B4800002403B405004001E4900B4193120834DB
:0D0B5800743A120834D2037509040209949E
:100F4600020B65E493A3F8E493A34003F68001F251
:100F560008DFF48029E493A3F85407240CC8C333AC
:100F6600C4540F4420C8834004F456800146F6DF7B
:100F7600E4800B0102040810204080901152E47EA8
:100F8600019360BCA3FF543F30E509541FFEE49370
:100F9600A360010ECF54C025E060A840B8E493A337
:100FA600FAE493A3F8E493A3C8C582C8CAC583CA62
:100FB600F0A3C8C582C8CAC583CADFE9DEE780BE1A
:011157000097
:100E2600BB010CE58229F582E5833AF583E0225081
:100E360006E92582F8E622BBFE06E92582F8E222CB
:0D0E4600E58229F582E5833AF583E49322E5
:100E5300BB010689828A83F0225002F722BBFE017E
:020E6300F32278
:100E6500F8E0FBA3A3E0F925F0F0E5821582700216
:070E75001583E0FA38F022BA
:090E7C00EBF0A3EAF0A3E9F02277
:100E8500D083D082F8E4937012740193700DA3A3FC
:100E950093F8740193F5828883E473740293686010
:060EA500EFA3A3A380DF10
:10107200EFB40A07740D12107D740A309811A89902
:10108200B8130CC2983098FDA899C298B811F630DE
:0710920099FDC299F59922B6
:00000001FF
