:100D200048756D693A25642E2564200A0054656D66
:0B0D3000703A25642E256420430A0061
:100D5200758DFD858D8B438920759850D2ACD28ECE
:030D6200D2992201
:100C6D00120D52D2AF7F967E00120D02120BEA7F4B
:100C7D00647E00120D027BFF7A0D792085220B8593
:100C8D00230C85240D85250E1208627BFF7A0D79C4
:100C9D002D85260B85270C85280D85290E120862BA
:090CAD007FD07E07120D0280BC0D
:100D3B00D2B67F02120D71C2B67F147E00120D0265
:070D4B00D2B67F0D020D710D
:100CDD00E4F51530B6FD7F08120D71E51625E0F52A
:100CED001630B602051620B6FD0515E515C3940898
:040CFD0040E1AF160D
:010D010022CF
:100BEA00120D3BD2B620B67A30B6FD7F28120D71AF
:100BFA00120CDD7508008F09120CDD750A008F0BC7
:100C0A00120CDD750C008F0D120CDD750E008F0FA6
:100C1A00120CDD8F147F19120D71E509250BFFE502
:100C2A0008350AFEE50D2FFFE50C3EFEE50F2FFF06
:100C3A00E50E3EFE7C00EFB51410ECB5060C8509F6
:100C4A0010850B11850D12850F137522008510234F
:100C5A0075240085112575260085122775280085BB
:020C6A0013294C
:010C6C002265
:030D7100DFFE2280
:100D0200D3EF9400EE940040147D6E7C00ED1D70D4
:0D0D1200011CED4C70F7EF1F70E61E80E332
:010D1F0022B1
:03000000020D6589
:0C0D6500787FE4F6D8FD758129020C6D42
:10080000E517240BF8E60517227808300702780B65
:10081000E475F001120BB4020B5C2000EB7F2ED2CA
:10082000008018EF540F2490D43440D4FF30040BD0
:10083000EF24BFB41A0050032461FFE518600215CD
:1008400018051BE51B7002051A30070D7808E475C2
:10085000F001120BB4EF020BA2020CB67403D20724
:100860008003E4C207F5178B088A09890AE4F518A2
:10087000F51AF51BE51860077F2012083B80F57517
:1008800019FFC201C200C202C203C205C206C208E9
:10089000120809FF700D3007057F0012084CAF1BCE
:1008A000AE1A22B4255FC2D5C204120809FF24D0B3
:1008B000B40A00501A75F00A781830D50508B6FF4A
:1008C0000106C6A426F620D5047002D20380D924DE
:1008D000CFB41A00EF5004C2E5D204020A4CD20190
:1008E00080C6D20080C0D20280BCD2D580BAD205E8
:1008F00080B47F2012083B2002077401B518004025
:10090000F1120800FF12083B020874D208D20680D8
:1009100095120800FB120800FA120800F94A4B7001
:1009200006791D7A0B7BFF20022EE518602A7E00D7
:100930008E82758300120B7560060EEE651970F0DD
:10094000C2D5EBC0E0EAC0E0E9C0E0EE120A93D005
:10095000E0F9D0E0FAD0E0FB120B5CFF60AAEBC03C
:10096000E0EAC0E0E9C0E012083BD0E02401F9D0A1
:10097000E03400FAD0E0FBE5190460DCD519D98039
:10098000877BFF7A0A798FD202809C791080027966
:1009900008C206C2088008D2D5790A8004790AC242
:1009A000D5E519047002F519E4FAFDFEFF120800FE
:1009B000FC7B08200113120800FD7B1030000A1296
:1009C0000800FE120800FF7B20EC3382D592D55040
:1009D00013C3E43000069FFFE49EFEE42001039D64
:1009E000FDE49CFCE4CBF8C201EC700CCFCECDCC86
:1009F000E824F8F870F38017C3EF33FFEE33FEED11
:100A000033FDEC33FCEB33FB994002FB0FD8E9EBF1
:100A1000300105F8D0E0C448B201C0E00AEC4D4E08
:100A20004F78207B0070C2EAB5190040BCC0E012CC
:100A30000A95D0F0D0E0200104C4C0E0C4B201C0E7
:100A4000F0120824D0F0D5F0EB020874120BC409A0
:100A50001153098B5808E24C08DE42098F4F099761
:0F0A60004409974908F743099D550981460981C3
:100A6F00450981470B3D5008E62D08EA2E090D2B4D
:100A7F0008EE23090B200B262A08A64800000905BB
:100A8F003F3F3F00790AA2D5200314300509B91062
:100A9F00020404B9080104A2D52006025001042063
:100AAF0002689202B518005034C0E07F203003195D
:100ABF007F30A20272067205500F120AECC202C2F8
:100ACF0006C205C2087F30800F300503E9C0E0126F
:100ADF00083B300503D0E0F9D0E0B518CC3005174E
:100AEF007F30B9100C12083B7F583004077F788095
:100AFF0003B9080312083B3002057F2D02083B7F24
:100B0F00202008F87F2B2006F322920280CF286E38
:100B1F00756C6C2900D2011208003001F8C20178FF
:100B2F001830D50108F60208A62D5043495812086F
:100B3F00002403B405004001E4900B389312082CF5
:0D0B4F00743A12082CD20375180402098BA9
:100B5C00BB010689828A83E0225002E722BBFE0297
:090B6C00E32289828A83E49322CA
:100B7500BB010CE58229F582E5833AF583E0225035
:100B850006E92582F8E622BBFE06E92582F8E2227F
:0D0B9500E58229F582E5833AF583E4932299
:100BA200BB010689828A83F0225002F722BBFE0132
:020BB200F3222C
:100BB400FAE6FB0808E6F925F0F618E6CA3AF62242
:100BC400D083D082F8E4937012740193700DA3A3C0
:100BD40093F8740193F5828883E4737402936860D4
:060BE400EFA3A3A380DFD4
:100CB600EFB40A07740D120CC1740A309811A89982
:100CC600B8130CC2983098FDA899C298B811F6309E
:070CD60099FDC299F5992276
:00000001FF
